{
  "contractName": "EcoCity",
  "abi": [
    {
      "inputs": [],
      "stateMutability": "nonpayable",
      "type": "constructor"
    },
    {
      "anonymous": false,
      "inputs": [
        {
          "indexed": true,
          "internalType": "address",
          "name": "oldOwner",
          "type": "address"
        },
        {
          "indexed": true,
          "internalType": "address",
          "name": "newowner",
          "type": "address"
        },
        {
          "indexed": false,
          "internalType": "uint256",
          "name": "price",
          "type": "uint256"
        }
      ],
      "name": "CommunityBought",
      "type": "event"
    },
    {
      "anonymous": false,
      "inputs": [
        {
          "indexed": true,
          "internalType": "address",
          "name": "communityOwner",
          "type": "address"
        },
        {
          "indexed": false,
          "internalType": "bytes",
          "name": "name",
          "type": "bytes"
        }
      ],
      "name": "CommunityCreated",
      "type": "event"
    },
    {
      "anonymous": false,
      "inputs": [
        {
          "indexed": true,
          "internalType": "address",
          "name": "seller",
          "type": "address"
        },
        {
          "indexed": false,
          "internalType": "uint256",
          "name": "price",
          "type": "uint256"
        }
      ],
      "name": "CommunityOnSale",
      "type": "event"
    },
    {
      "anonymous": false,
      "inputs": [
        {
          "indexed": true,
          "internalType": "address",
          "name": "communityOwner",
          "type": "address"
        },
        {
          "indexed": false,
          "internalType": "uint8[15]",
          "name": "investments",
          "type": "uint8[15]"
        }
      ],
      "name": "ResourcesInvested",
      "type": "event"
    },
    {
      "inputs": [
        {
          "internalType": "uint256",
          "name": "",
          "type": "uint256"
        }
      ],
      "name": "addressArray",
      "outputs": [
        {
          "internalType": "address",
          "name": "",
          "type": "address"
        }
      ],
      "stateMutability": "view",
      "type": "function",
      "constant": true
    },
    {
      "inputs": [
        {
          "internalType": "address",
          "name": "",
          "type": "address"
        }
      ],
      "name": "communities",
      "outputs": [
        {
          "internalType": "bytes",
          "name": "name",
          "type": "bytes"
        },
        {
          "internalType": "enum EcoCity.CommunityType",
          "name": "classification",
          "type": "uint8"
        },
        {
          "internalType": "uint256",
          "name": "lastInvestment",
          "type": "uint256"
        },
        {
          "internalType": "uint256",
          "name": "score",
          "type": "uint256"
        },
        {
          "internalType": "uint256",
          "name": "eco",
          "type": "uint256"
        },
        {
          "internalType": "uint256",
          "name": "price",
          "type": "uint256"
        },
        {
          "internalType": "address payable",
          "name": "owner",
          "type": "address"
        },
        {
          "components": [
            {
              "internalType": "uint8",
              "name": "eventId",
              "type": "uint8"
            },
            {
              "internalType": "uint8",
              "name": "severity",
              "type": "uint8"
            },
            {
              "internalType": "uint8[15]",
              "name": "damages",
              "type": "uint8[15]"
            }
          ],
          "internalType": "struct EcoCity.CasualEvent",
          "name": "lastEvent",
          "type": "tuple"
        }
      ],
      "stateMutability": "view",
      "type": "function",
      "constant": true
    },
    {
      "inputs": [
        {
          "internalType": "uint8",
          "name": "",
          "type": "uint8"
        },
        {
          "internalType": "uint256",
          "name": "",
          "type": "uint256"
        }
      ],
      "name": "eventDamages",
      "outputs": [
        {
          "internalType": "uint8",
          "name": "",
          "type": "uint8"
        }
      ],
      "stateMutability": "view",
      "type": "function",
      "constant": true
    },
    {
      "inputs": [
        {
          "internalType": "uint8",
          "name": "",
          "type": "uint8"
        },
        {
          "internalType": "uint256",
          "name": "",
          "type": "uint256"
        }
      ],
      "name": "eventDiscounts",
      "outputs": [
        {
          "internalType": "uint8",
          "name": "",
          "type": "uint8"
        }
      ],
      "stateMutability": "view",
      "type": "function",
      "constant": true
    },
    {
      "inputs": [
        {
          "internalType": "bytes",
          "name": "_name",
          "type": "bytes"
        }
      ],
      "name": "createCommunity",
      "outputs": [],
      "stateMutability": "nonpayable",
      "type": "function"
    },
    {
      "inputs": [
        {
          "internalType": "address",
          "name": "_owner",
          "type": "address"
        }
      ],
      "name": "getCommunityByOwner",
      "outputs": [
        {
          "components": [
            {
              "internalType": "bytes",
              "name": "name",
              "type": "bytes"
            },
            {
              "internalType": "enum EcoCity.CommunityType",
              "name": "classification",
              "type": "uint8"
            },
            {
              "internalType": "uint8[15]",
              "name": "resources",
              "type": "uint8[15]"
            },
            {
              "internalType": "uint8[7]",
              "name": "challenges",
              "type": "uint8[7]"
            },
            {
              "internalType": "uint256",
              "name": "lastInvestment",
              "type": "uint256"
            },
            {
              "internalType": "uint256",
              "name": "score",
              "type": "uint256"
            },
            {
              "internalType": "uint256",
              "name": "eco",
              "type": "uint256"
            },
            {
              "internalType": "uint256",
              "name": "price",
              "type": "uint256"
            },
            {
              "internalType": "address payable",
              "name": "owner",
              "type": "address"
            },
            {
              "components": [
                {
                  "internalType": "uint8",
                  "name": "eventId",
                  "type": "uint8"
                },
                {
                  "internalType": "uint8",
                  "name": "severity",
                  "type": "uint8"
                },
                {
                  "internalType": "uint8[15]",
                  "name": "damages",
                  "type": "uint8[15]"
                }
              ],
              "internalType": "struct EcoCity.CasualEvent",
              "name": "lastEvent",
              "type": "tuple"
            }
          ],
          "internalType": "struct EcoCity.Community",
          "name": "community",
          "type": "tuple"
        }
      ],
      "stateMutability": "view",
      "type": "function",
      "constant": true
    },
    {
      "inputs": [
        {
          "internalType": "uint8[15]",
          "name": "_investments",
          "type": "uint8[15]"
        },
        {
          "internalType": "uint8",
          "name": "randomNumber",
          "type": "uint8"
        },
        {
          "internalType": "uint8",
          "name": "eventNumber",
          "type": "uint8"
        },
        {
          "internalType": "uint8",
          "name": "eventSeverity",
          "type": "uint8"
        }
      ],
      "name": "investResources",
      "outputs": [],
      "stateMutability": "nonpayable",
      "type": "function"
    },
    {
      "inputs": [],
      "name": "removeFromShop",
      "outputs": [],
      "stateMutability": "nonpayable",
      "type": "function"
    },
    {
      "inputs": [
        {
          "components": [
            {
              "internalType": "bytes",
              "name": "name",
              "type": "bytes"
            },
            {
              "internalType": "enum EcoCity.CommunityType",
              "name": "classification",
              "type": "uint8"
            },
            {
              "internalType": "uint8[15]",
              "name": "resources",
              "type": "uint8[15]"
            },
            {
              "internalType": "uint8[7]",
              "name": "challenges",
              "type": "uint8[7]"
            },
            {
              "internalType": "uint256",
              "name": "lastInvestment",
              "type": "uint256"
            },
            {
              "internalType": "uint256",
              "name": "score",
              "type": "uint256"
            },
            {
              "internalType": "uint256",
              "name": "eco",
              "type": "uint256"
            },
            {
              "internalType": "uint256",
              "name": "price",
              "type": "uint256"
            },
            {
              "internalType": "address payable",
              "name": "owner",
              "type": "address"
            },
            {
              "components": [
                {
                  "internalType": "uint8",
                  "name": "eventId",
                  "type": "uint8"
                },
                {
                  "internalType": "uint8",
                  "name": "severity",
                  "type": "uint8"
                },
                {
                  "internalType": "uint8[15]",
                  "name": "damages",
                  "type": "uint8[15]"
                }
              ],
              "internalType": "struct EcoCity.CasualEvent",
              "name": "lastEvent",
              "type": "tuple"
            }
          ],
          "internalType": "struct EcoCity.Community",
          "name": "_community",
          "type": "tuple"
        }
      ],
      "name": "buyCommunity",
      "outputs": [],
      "stateMutability": "payable",
      "type": "function",
      "payable": true
    },
    {
      "inputs": [
        {
          "internalType": "uint256",
          "name": "price",
          "type": "uint256"
        },
        {
          "internalType": "address",
          "name": "addressOwner",
          "type": "address"
        }
      ],
      "name": "sellCommunity",
      "outputs": [],
      "stateMutability": "nonpayable",
      "type": "function"
    },
    {
      "inputs": [],
      "name": "getCommunitiesForSale",
      "outputs": [
        {
          "components": [
            {
              "internalType": "bytes",
              "name": "name",
              "type": "bytes"
            },
            {
              "internalType": "enum EcoCity.CommunityType",
              "name": "classification",
              "type": "uint8"
            },
            {
              "internalType": "uint8[15]",
              "name": "resources",
              "type": "uint8[15]"
            },
            {
              "internalType": "uint8[7]",
              "name": "challenges",
              "type": "uint8[7]"
            },
            {
              "internalType": "uint256",
              "name": "lastInvestment",
              "type": "uint256"
            },
            {
              "internalType": "uint256",
              "name": "score",
              "type": "uint256"
            },
            {
              "internalType": "uint256",
              "name": "eco",
              "type": "uint256"
            },
            {
              "internalType": "uint256",
              "name": "price",
              "type": "uint256"
            },
            {
              "internalType": "address payable",
              "name": "owner",
              "type": "address"
            },
            {
              "components": [
                {
                  "internalType": "uint8",
                  "name": "eventId",
                  "type": "uint8"
                },
                {
                  "internalType": "uint8",
                  "name": "severity",
                  "type": "uint8"
                },
                {
                  "internalType": "uint8[15]",
                  "name": "damages",
                  "type": "uint8[15]"
                }
              ],
              "internalType": "struct EcoCity.CasualEvent",
              "name": "lastEvent",
              "type": "tuple"
            }
          ],
          "internalType": "struct EcoCity.Community[]",
          "name": "",
          "type": "tuple[]"
        }
      ],
      "stateMutability": "view",
      "type": "function",
      "constant": true
    },
    {
      "inputs": [],
      "name": "getTop5Communities",
      "outputs": [
        {
          "components": [
            {
              "internalType": "bytes",
              "name": "name",
              "type": "bytes"
            },
            {
              "internalType": "enum EcoCity.CommunityType",
              "name": "classification",
              "type": "uint8"
            },
            {
              "internalType": "uint8[15]",
              "name": "resources",
              "type": "uint8[15]"
            },
            {
              "internalType": "uint8[7]",
              "name": "challenges",
              "type": "uint8[7]"
            },
            {
              "internalType": "uint256",
              "name": "lastInvestment",
              "type": "uint256"
            },
            {
              "internalType": "uint256",
              "name": "score",
              "type": "uint256"
            },
            {
              "internalType": "uint256",
              "name": "eco",
              "type": "uint256"
            },
            {
              "internalType": "uint256",
              "name": "price",
              "type": "uint256"
            },
            {
              "internalType": "address payable",
              "name": "owner",
              "type": "address"
            },
            {
              "components": [
                {
                  "internalType": "uint8",
                  "name": "eventId",
                  "type": "uint8"
                },
                {
                  "internalType": "uint8",
                  "name": "severity",
                  "type": "uint8"
                },
                {
                  "internalType": "uint8[15]",
                  "name": "damages",
                  "type": "uint8[15]"
                }
              ],
              "internalType": "struct EcoCity.CasualEvent",
              "name": "lastEvent",
              "type": "tuple"
            }
          ],
          "internalType": "struct EcoCity.Community[5]",
          "name": "",
          "type": "tuple[5]"
        }
      ],
      "stateMutability": "view",
      "type": "function",
      "constant": true
    }
  ],
  "bytecode": "0x6080604052600080546001600160a01b03191673012b1ecab40fccf8a07e1db99174b7d3bc89819b1790553480156200003757600080fd5b506040805160608101825260008082526004602080840191909152600a938301939093526001905260039182905262000093917fa15bc60c955c405d20d9149c709e2460f1c2d9a497496a7f46004d1772c3054c9190620004ad565b506040805160608101825260028152600360208083018290526004938301849052600160005292909252620000eb917fabd6e7cb50984ff9c2f3e18a2660c3353dadf4e3291deeb275dae2cd1e44fe059190620004ad565b506040805160808101825260048082526005602080840191909152600993830193909352600e6060830152600260005260039092526200014e917fc3a24b0501bd2c13a7e57f2db4369ec4c223447539fc0724a9d55ac4a06ebd4d9190620004ad565b5060408051606081018252600080825260026020808401829052600b9484019490945290526004909152620001a7907f91da3fd0782e51c6b3986e9e672fd566868e71f3dbc2d6c2cd6fbb3e361af2a7906003620004ad565b5060408051606081018252600481526005602080830191909152600b92820192909252600360008190529182905262000203917fcbc4e5fb02c3d1de23a9f1e014b4d2ee5aeaea9505df5e855c9210bf472495af9190620004ad565b506040805160808101825260008082526001602080840191909152600293830193909352600e60608301526003905260049182905262000266917f2e174c10e159ea99b867ce3205125c24a42d128804e4070ed6fcc8cc98166aa09190620004ad565b506040805160608101825260068152600c602080830191909152600d928201929092526004600052600391829052620002c2917f83ec6a1f0257b830b5e016457c9cf1435391bf56cc98f369a58a54fe937724659190620004ad565b5060408051606081018252600681526009602080830191909152600b92820192909252600460008190529091526200031e907f1a1e6821cde7d0159c0d293177871e09677b4e42307c7db3ba94f8648a5a050f906003620004ad565b50604080516060810182526004815260056020808301829052600a9383019390935260005260039182905262000377917f405aad32e1adbac89bb7f176e338b8fc6e994ca210c9bb7bdca249b4659422509190620004ad565b506040805160a08101825260008082526006602080840191909152600a93830193909352600b6060830152600e60808301526005908190526004909252620003e2917f04cde762ef08b6b6c5ded8e8c4c0b3f4e5c9ad7342c88fcc93681b4588b73f059190620004ad565b50604080516080810182526001815260046020808301829052600a93830193909352600c60608301526006600052600390925262000443917fc69056f16cbaa3c616b828e333ab7d3a32310765507f8f58359e99ebb7a885f39190620004ad565b506040805160808101825260008082526001602080840191909152600293830193909352600e606083015260069052600491829052620004a6917fc59312466997bb42aaaf719ece141047820e6b34531e1670dc1852a453648f0f9190620004ad565b5062000571565b82805482825590600052602060002090601f01602090048101928215620005485791602002820160005b838211156200051757835183826101000a81548160ff021916908360ff1602179055509260200192600101602081600001049283019260010302620004d7565b8015620005465782816101000a81549060ff021916905560010160208160000104928301926001030262000517565b505b50620005569291506200055a565b5090565b5b808211156200055657600081556001016200055b565b6132e980620005816000396000f3fe6080604052600436106100a75760003560e01c8063760e739611610064578063760e7396146101755780637e53ab93146101975780637f2813d2146101c4578063c64c941f146101f8578063d7bc1ad71461022a578063ea59c6481461024a57600080fd5b80630b011abc146100ac5780630eb4eaf7146100c35780630f96cf34146100e35780632f23c3921461012057806336179a9c1461013357806347ffb24c14610153575b600080fd5b3480156100b857600080fd5b506100c161026a565b005b3480156100cf57600080fd5b506100c16100de3660046127ea565b6102d9565b3480156100ef57600080fd5b506101036100fe36600461281a565b61043f565b6040516001600160a01b0390911681526020015b60405180910390f35b6100c161012e366004612aa0565b610469565b34801561013f57600080fd5b506100c161014e366004612b97565b610928565b34801561015f57600080fd5b506101686110af565b6040516101179190612d9a565b34801561018157600080fd5b5061018a6116a4565b6040516101179190612dfc565b3480156101a357600080fd5b506101b76101b2366004612e49565b611a33565b6040516101179190612e6d565b3480156101d057600080fd5b506101e46101df366004612e49565b611d19565b604051610117989796959493929190612e80565b34801561020457600080fd5b50610218610213366004612ee4565b611e6b565b60405160ff9091168152602001610117565b34801561023657600080fd5b506100c1610245366004612f0e565b611eae565b34801561025657600080fd5b50610218610265366004612ee4565b6122e7565b33600090815260016020526040902060078101546102cf5760405162461bcd60e51b815260206004820152601860248201527f436f6d6d756e697479206973206e6f74206f6e2073616c65000000000000000060448201526064015b60405180910390fd5b6000600790910155565b6001600160a01b03811660009081526001602052604090206007810154156103435760405162461bcd60e51b815260206004820152601c60248201527f636f6d6d756e69747920697320616c7265616479206f6e2073616c650000000060448201526064016102c6565b600083116103935760405162461bcd60e51b815260206004820152601c60248201527f7072696365206d7573742062652067726561746572207468616e20300000000060448201526064016102c6565b60088101546001600160a01b031633146103fe5760405162461bcd60e51b815260206004820152602660248201527f796f75206d75737420626520746865206f776e6572206f662074686520636f6d6044820152656d756e69747960d01b60648201526084016102c6565b6007810183905560405183815233907f12129cb641ceddcd6d3f09d03648e2a71ad9e103eaa15db03ae53970b89b84b89060200160405180910390a2505050565b6002818154811061044f57600080fd5b6000918252602090912001546001600160a01b0316905081565b6101008101516001600160a01b031633036104c65760405162461bcd60e51b815260206004820152601d60248201527f63616e6e6f742062757920796f7572206f776e20636f6d6d756e69747900000060448201526064016102c6565b60008160e00151116105125760405162461bcd60e51b8152602060048201526015602482015274636f6d6d756e697479206e6f74206f6e2073616c6560581b60448201526064016102c6565b336000908152600160205260409020805461052c90612f4b565b15905061054b5760405162461bcd60e51b81526004016102c690612f85565b61010081015160005b600254811015610674578261010001516001600160a01b03166002828154811061058057610580612fc9565b6000918252602090912001546001600160a01b031603610662576002546105a990600190612ff5565b811461062a57600280546105bf90600190612ff5565b815481106105cf576105cf612fc9565b600091825260209091200154600280546001600160a01b0390921691839081106105fb576105fb612fc9565b9060005260206000200160006101000a8154816001600160a01b0302191690836001600160a01b031602179055505b600280548061063b5761063b61300e565b600082815260209020810160001990810180546001600160a01b0319169055019055610674565b8061066c81613024565b915050610554565b50600280546001810182556000919091527f405787fa12a823e0f2b7631cc41b3ba8828b3321ca811111fa75cd3aa3bb5ace0180546001600160a01b031916331790556001600160a01b0381166108fc600a6106d134600961303d565b6106db919061306a565b6040518115909202916000818181858888f19350505050158015610703573d6000803e3d6000fd5b506000546001600160a01b03166108fc61071e600a3461306a565b6040518115909202916000818181858888f19350505050158015610746573d6000803e3d6000fd5b5033610100830152600060e083018190526001600160a01b03821681526001602052604081209061077782826125fb565b506001818101805460ff1916905560006002830181905560038301819055600483018190556005830181905560068301819055600783018190556008830180546001600160a01b031916905560098301805461ffff19169055600a90920182905533825260205260409020825183919081906107f390826130cc565b50602082015160018083018054909160ff199091169083600381111561081b5761081b612c35565b02179055506040820151610835906002830190600f612638565b50606082015161084b9060038301906007612638565b506080820151600482015560a0820151600582015560c0820151600682015560e08201516007820155610100808301516008830180546001600160a01b0319166001600160a01b039092169190911790556101208301518051600984018054602084015160ff93841661ffff1990921691909117921690930217825560408101519091906108df90600a850190600f612638565b50506040513481523393506001600160a01b03851692507f307b4766a493aa5a5a862c838b0a0216edd63de35c39a8ebd1ba11db98a25474915060200160405180910390a35050565b33600090815260016020526040812090805b600f81101561097b578681600f811061095557610955612fc9565b60200201516109679060ff168361318c565b91508061097381613024565b91505061093a565b5081600601548111156109de5760405162461bcd60e51b815260206004820152602560248201527f43616e6e6f7420696e76657374206d6f7265207468616e207768617420796f75604482015264206861766560d81b60648201526084016102c6565b60005b600f8160ff161015610b09576064878260ff16600f8110610a0457610a04612fc9565b6020020151846002018360ff16600f8110610a2157610a21612fc9565b602091828204019190069054906101000a900460ff16610a41919061319f565b60ff161115610a89576064836002018260ff16600f8110610a6457610a64612fc9565b602091828204019190066101000a81548160ff021916908360ff160217905550610af7565b868160ff16600f8110610a9e57610a9e612fc9565b6020020151836002018260ff16600f8110610abb57610abb612fc9565b602091828204019190068282829054906101000a900460ff16610ade919061319f565b92506101000a81548160ff021916908360ff1602179055505b80610b01816131b8565b9150506109e1565b50426004830155601e60ff861611610b80576000610b28838686612303565b6040805160608101825260ff8881168083529088166020830181905292820184905260098701805461ffff1916909117610100909302929092178255919250610b76600a860184600f612638565b5090505050610c4c565b60408051606080820183526000808352602080840182815285516101e0810187528381529182018390528186018390529281018290526080810182905260a0810182905260c0810182905260e0810182905261010080820183905261012082018390526101408201839052610160820183905261018082018390526101a082018390526101c08201929092529383018490528251600987018054935160ff90811690930261ffff1990941691909216179190911781559091610c4890600a860190600f612638565b5050505b6000805b600f8160ff161015610ca757836002018160ff16600f8110610c7457610c74612fc9565b602081049190910154610c9391601f166101000a900460ff16836131d7565b915080610c9f816131b8565b915050610c50565b506105dc610cb68260646131f2565b610cc09190613218565b61ffff1660058401819055605a11610cef576001808401805460009260ff1990911690835b0217905550610d40565b603c836005015410610d0d576001838101805460ff19168280610ce5565b601e836005015410610d30576001808401805460029260ff199091169083610ce5565b60018301805460ff191660031790555b6005830154610d51906103e861318c565b6006840155600283015460049060ff600160581b8204811691600160501b8104821691610d87916201000081048216911661319f565b610d91919061319f565b610d9b919061319f565b610da59190613239565b60038401805460ff191660ff9283161790556002840154600491600160701b8204811691600160581b8104821691610de791630100000081048216911661319f565b610df1919061319f565b610dfb919061319f565b610e059190613239565b60038401805461ff00191661010060ff9384168102919091179091556002850154600492600160501b8204811692600160301b8304821692610e559264010000000082048116929091041661319f565b610e5f919061319f565b610e69919061319f565b610e739190613239565b60038401805462ff000019166201000060ff938416021790556002840154600491600160701b820481169169010000000000000000008104821691610ed3916801000000000000000081048216916701000000000000009091041661319f565b610edd919061319f565b610ee7919061319f565b610ef19190613239565b60038401805463ff0000001916630100000060ff938416021790556002840154600491600160581b8204811691600160301b8104821691610f4291600160501b81048216916101009091041661319f565b610f4c919061319f565b610f56919061319f565b610f609190613239565b60038401805464ff00000000191664010000000060ff938416021790556002840154600491600160501b8204811691600160301b8104821691610fb591600160601b8104821691600160681b9091041661319f565b610fbf919061319f565b610fc9919061319f565b610fd39190613239565b60038401805465ff000000000019166501000000000060ff9384168102919091179091556002850154600492600160581b820481169262010000830482169261102a9264010000000082048116929091041661319f565b611034919061319f565b61103e919061319f565b6110489190613239565b60038401805460ff92909216600160301b0266ff0000000000001990921691909117905560405133907f583d485be65f4645de7b472d2552ff6fdb6de32aca88a89d31e08374a7b17dd89061109e908a9061325b565b60405180910390a250505050505050565b60606000805b60025481101561136a57600060016000600284815481106110d8576110d8612fc9565b60009182526020808320909101546001600160a01b0316835282019290925260409081019091208151610140810190925280548290829061111890612f4b565b80601f016020809104026020016040519081016040528092919081815260200182805461114490612f4b565b80156111915780601f1061116657610100808354040283529160200191611191565b820191906000526020600020905b81548152906001019060200180831161117457829003601f168201915b5050509183525050600182015460209091019060ff1660038111156111b8576111b8612c35565b60038111156111c9576111c9612c35565b8152604080516101e0810191829052602090920191906002840190600f90826000855b825461010083900a900460ff168152602060019283018181049485019490930390920291018084116111ec5750505092845250506040805160e081019182905260209093019291506003840190600790826000855b825461010083900a900460ff16815260206001928301818104948501949093039092029101808411611241575050509284525050506004820154602080830191909152600583015460408084019190915260068401546060808501919091526007850154608085015260088501546001600160a01b031660a08501528151908101825260098501805460ff8082168452610100909104169382019390935281516101e0810180845260c090950194919392840191600a870190600f90826000855b825461010083900a900460ff1681526020600192830181810494850194909303909202910180841161130257505050929093525050509152505060e081015190915015611357578261135381613024565b9350505b508061136281613024565b9150506110b5565b5060008167ffffffffffffffff81111561138657611386612833565b6040519080825280602002602001820160405280156113bf57816020015b6113ac6126cb565b8152602001906001900390816113a45790505b5090506000915060005b60025481101561169d57600060016000600284815481106113ec576113ec612fc9565b60009182526020808320909101546001600160a01b0316835282019290925260409081019091208151610140810190925280548290829061142c90612f4b565b80601f016020809104026020016040519081016040528092919081815260200182805461145890612f4b565b80156114a55780601f1061147a576101008083540402835291602001916114a5565b820191906000526020600020905b81548152906001019060200180831161148857829003601f168201915b5050509183525050600182015460209091019060ff1660038111156114cc576114cc612c35565b60038111156114dd576114dd612c35565b8152604080516101e0810191829052602090920191906002840190600f90826000855b825461010083900a900460ff168152602060019283018181049485019490930390920291018084116115005750505092845250506040805160e081019182905260209093019291506003840190600790826000855b825461010083900a900460ff16815260206001928301818104948501949093039092029101808411611555575050509284525050506004820154602080830191909152600583015460408084019190915260068401546060808501919091526007850154608085015260088501546001600160a01b031660a08501528151908101825260098501805460ff8082168452610100909104169382019390935281516101e0810180845260c090950194919392840191600a870190600f90826000855b825461010083900a900460ff1681526020600192830181810494850194909303909202910180841161161657505050929093525050509152505060e08101519091501561168a578083858151811061167057611670612fc9565b6020026020010181905250838061168690613024565b9450505b508061169581613024565b9150506113c9565b5092915050565b6116ac612737565b6116b4612737565b6000805b60058260ff161080156116cc575060025481105b15611a2b576000600282815481106116e6576116e6612fc9565b60009182526020808320909101546001600160a01b03168083526001909152604080832081516101408101909252805492945090918290829061172890612f4b565b80601f016020809104026020016040519081016040528092919081815260200182805461175490612f4b565b80156117a15780601f10611776576101008083540402835291602001916117a1565b820191906000526020600020905b81548152906001019060200180831161178457829003601f168201915b5050509183525050600182015460209091019060ff1660038111156117c8576117c8612c35565b60038111156117d9576117d9612c35565b8152604080516101e0810191829052602090920191906002840190600f90826000855b825461010083900a900460ff168152602060019283018181049485019490930390920291018084116117fc5750505092845250506040805160e081019182905260209093019291506003840190600790826000855b825461010083900a900460ff16815260206001928301818104948501949093039092029101808411611851575050509284525050506004820154602080830191909152600583015460408084019190915260068401546060808501919091526007850154608085015260088501546001600160a01b031660a08501528151908101825260098501805460ff8082168452610100909104169382019390935281516101e0810180845260c090950194919392840191600a870190600f90826000855b825461010083900a900460ff1681526020600192830181810494850194909303909202910180841161191257505050929093525050509152505060a081015190915015611a1757835b60008160ff1611801561199857508561197560018361326a565b60ff166005811061198857611988612fc9565b602002015160a001518260a00151115b156119ed57856119a960018361326a565b60ff16600581106119bc576119bc612fc9565b6020020151868260ff16600581106119d6576119d6612fc9565b6020020152806119e581613283565b91505061195b565b81868260ff1660058110611a0357611a03612fc9565b602002015284611a12816131b8565b955050505b82611a2181613024565b93505050506116b8565b509092915050565b611a3b6126cb565b6001600160a01b03821660009081526001602052604081208054611a5e90612f4b565b905011611abb5760405162461bcd60e51b815260206004820152602560248201527f54686973206164647265737320646f65736e27742068617665206120636f6d6d604482015264756e69747960d81b60648201526084016102c6565b6001600160a01b0382166000908152600160205260409081902081516101408101909252805482908290611aee90612f4b565b80601f0160208091040260200160405190810160405280929190818152602001828054611b1a90612f4b565b8015611b675780601f10611b3c57610100808354040283529160200191611b67565b820191906000526020600020905b815481529060010190602001808311611b4a57829003601f168201915b5050509183525050600182015460209091019060ff166003811115611b8e57611b8e612c35565b6003811115611b9f57611b9f612c35565b8152604080516101e0810191829052602090920191906002840190600f90826000855b825461010083900a900460ff16815260206001928301818104948501949093039092029101808411611bc25750505092845250506040805160e081019182905260209093019291506003840190600790826000855b825461010083900a900460ff16815260206001928301818104948501949093039092029101808411611c17575050509284525050506004820154602080830191909152600583015460408084019190915260068401546060808501919091526007850154608085015260088501546001600160a01b031660a08501528151908101825260098501805460ff8082168452610100909104169382019390935281516101e0810180845260c090950194919392840191600a870190600f90826000855b825461010083900a900460ff16815260206001928301818104948501949093039092029101808411611cd85790505050509190925250505090525092915050565b600160205260009081526040902080548190611d3490612f4b565b80601f0160208091040260200160405190810160405280929190818152602001828054611d6090612f4b565b8015611dad5780601f10611d8257610100808354040283529160200191611dad565b820191906000526020600020905b815481529060010190602001808311611d9057829003601f168201915b505050506001830154600484015460058501546006860154600787015460088801546040805160608101825260098b01805460ff80821684526101009091048116602084015283516101e081018086529c9d91909a169b989a509698959794966001600160a01b0390941695939491939092840191600a860190600f90826000855b825461010083900a900460ff16815260206001928301818104948501949093039092029101808411611e2f579050505050505081525050905088565b60046020528160005260406000208181548110611e8757600080fd5b9060005260206000209060209182820401919006915091509054906101000a900460ff1681565b3360009081526001602052604090208054611ec890612f4b565b159050611ee75760405162461bcd60e51b81526004016102c690612f85565b6000815111611f385760405162461bcd60e51b815260206004820181905260248201527f50726f766964652061206e616d6520666f722074686520636f6d6d756e69747960448201526064016102c6565b6040805161014081019091528181526020810160038152602001604051806101e00160405280600060ff168152602001600060ff168152602001600060ff168152602001600060ff168152602001600060ff168152602001600060ff168152602001600060ff168152602001600060ff168152602001600060ff168152602001600060ff168152602001600060ff168152602001600060ff168152602001600060ff168152602001600060ff168152602001600060ff1681525081526020016040518060e00160405280600060ff168152602001600060ff168152602001600060ff168152602001600060ff168152602001600060ff168152602001600060ff168152602001600060ff16815250815260200142815260200160008152602001600a815260200160008152602001336001600160a01b031681526020016040518060600160405280600060ff168152602001600060ff168152602001604051806101e00160405280600060ff168152602001600060ff168152602001600060ff168152602001600060ff168152602001600060ff168152602001600060ff168152602001600060ff168152602001600060ff168152602001600060ff168152602001600060ff168152602001600060ff168152602001600060ff168152602001600060ff168152602001600060ff168152602001600060ff1681525081525081525060016000336001600160a01b03166001600160a01b03168152602001908152602001600020600082015181600001908161217491906130cc565b50602082015160018083018054909160ff199091169083600381111561219c5761219c612c35565b021790555060408201516121b6906002830190600f612638565b5060608201516121cc9060038301906007612638565b506080820151600482015560a0820151600582015560c0820151600682015560e08201516007820155610100808301516008830180546001600160a01b0319166001600160a01b039092169190911790556101208301518051600984018054602084015160ff93841661ffff19909216919091179216909302178255604081015190919061226090600a850190600f612638565b5050600280546001810182556000919091527f405787fa12a823e0f2b7631cc41b3ba8828b3321ca811111fa75cd3aa3bb5ace0180546001600160a01b031916339081179091556040519093507fa5da1adc5a987ffaa24cca32242f5aec1db7125111bf93e248baa0c73e8bdd8f92506122dc915084906132a0565b60405180910390a250565b60036020528160005260406000208181548110611e8757600080fd5b61230b612764565b60ff831660009081526003602090815260408083208054825181850281018501909352808352919290919083018282801561238357602002820191906000526020600020906000905b825461010083900a900460ff168152602060019283018181049485019490930390920291018084116123545790505b5050505060ff86166000908152600460209081526040808320805482518185028101850190935280835295965092949093509083018282801561240357602002820191906000526020600020906000905b825461010083900a900460ff168152602060019283018181049485019490930390920291018084116123d45790505b50505050509050612412612764565b6000805b84518160ff1610156124a8576000858260ff168151811061243957612439612fc9565b602002602001015190506064600a8b6002018360ff16600f811061245f5761245f612fc9565b60208104919091015461247e9291601f166101000a900460ff1661303d565b612488919061306a565b612492908461318c565b92505080806124a0906131b8565b915050612416565b5060005b83518160ff1610156125ee576000848260ff16815181106124cf576124cf612fc9565b6020026020010151905060008860ff1660196124eb919061303d565b905060008b6002018360ff16600f811061250757612507612fc9565b60208104919091015461252691601f166101000a900460ff168361303d565b9050600061253560648361306a565b905060006064612545888461303d565b61254f919061306a565b612559908361318c565b9050808e6002018660ff16600f811061257457612574612fc9565b602091828204019190068282829054906101000a900460ff16612597919061326a565b92506101000a81548160ff021916908360ff16021790555080888660ff16600f81106125c5576125c5612fc9565b602002019060ff16908160ff1681525050505050505080806125e6906131b8565b9150506124ac565b5090979650505050505050565b50805461260790612f4b565b6000825580601f10612617575050565b601f0160209004906000526020600020908101906126359190612783565b50565b6001830191839082156126bb5791602002820160005b8382111561268c57835183826101000a81548160ff021916908360ff160217905550926020019260010160208160000104928301926001030261264e565b80156126b95782816101000a81549060ff021916905560010160208160000104928301926001030261268c565b505b506126c7929150612783565b5090565b604080516101408101825260608152600060208201529081016126ec612764565b81526020016126f9612798565b81526020016000815260200160008152602001600081526020016000815260200160006001600160a01b031681526020016127326127b6565b905290565b6040518060a001604052806005905b61274e6126cb565b8152602001906001900390816127465790505090565b604051806101e00160405280600f906020820280368337509192915050565b5b808211156126c75760008155600101612784565b6040518060e001604052806007906020820280368337509192915050565b6040805160608101825260008082526020820152908101612732612764565b6001600160a01b038116811461263557600080fd5b600080604083850312156127fd57600080fd5b82359150602083013561280f816127d5565b809150509250929050565b60006020828403121561282c57600080fd5b5035919050565b634e487b7160e01b600052604160045260246000fd5b604051610140810167ffffffffffffffff8111828210171561286d5761286d612833565b60405290565b6040516101e0810167ffffffffffffffff8111828210171561286d5761286d612833565b60405160e0810167ffffffffffffffff8111828210171561286d5761286d612833565b604051601f8201601f1916810167ffffffffffffffff811182821017156128e3576128e3612833565b604052919050565b600082601f8301126128fc57600080fd5b813567ffffffffffffffff81111561291657612916612833565b612929601f8201601f19166020016128ba565b81815284602083860101111561293e57600080fd5b816020850160208301376000918101602001919091529392505050565b80356004811061296a57600080fd5b919050565b803560ff8116811461296a57600080fd5b600082601f83011261299157600080fd5b612999612873565b806101e08401858111156129ac57600080fd5b845b818110156129cd576129bf8161296f565b8452602093840193016129ae565b509095945050505050565b600082601f8301126129e957600080fd5b6129f1612897565b8060e0840185811115612a0357600080fd5b845b818110156129cd57612a168161296f565b845260209384019301612a05565b803561296a816127d5565b60006102208284031215612a4257600080fd5b6040516060810181811067ffffffffffffffff82111715612a6557612a65612833565b604052905080612a748361296f565b8152612a826020840161296f565b6020820152612a948460408501612980565b60408201525092915050565b600060208284031215612ab257600080fd5b813567ffffffffffffffff80821115612aca57600080fd5b908301906105c08286031215612adf57600080fd5b612ae7612849565b823582811115612af657600080fd5b612b02878286016128eb565b825250612b116020840161295b565b6020820152612b238660408501612980565b6040820152612b368661022085016129d8565b6060820152610300830135608082015261032083013560a082015261034083013560c082015261036083013560e0820152612b746103808401612a24565b610100820152612b88866103a08501612a2f565b61012082015295945050505050565b6000806000806102408587031215612bae57600080fd5b612bb88686612980565b9350612bc76101e0860161296f565b9250612bd6610200860161296f565b9150612be5610220860161296f565b905092959194509250565b60008151808452602060005b82811015612c17578481018201518682018301528101612bfc565b506000858301820152601f909101601f191690930190920192915050565b634e487b7160e01b600052602160045260246000fd5b60048110612c6957634e487b7160e01b600052602160045260246000fd5b9052565b8060005b600f811015612c9357815160ff16845260209384019390910190600101612c71565b50505050565b8060005b6007811015612c9357815160ff16845260209384019390910190600101612c9d565b60ff815116825260ff60208201511660208301526040810151612ce56040840182612c6d565b505050565b60006105c08251818552612d0082860182612bf0565b9150506020830151612d156020860182612c4b565b506040830151612d286040860182612c6d565b506060830151612d3c610220860182612c99565b50608083015161030085015260a083015161032085015260c083015161034085015260e08301516103608501526101008301516001600160a01b0316610380850152610120830151612d926103a0860182612cbf565b509392505050565b6000602080830181845280855180835260408601915060408160051b870101925083870160005b82811015612def57603f19888603018452612ddd858351612cea565b94509285019290850190600101612dc1565b5092979650505050505050565b602080825260009060c0830183820185845b6005811015612e3d57601f19878503018352612e2b848351612cea565b93509184019190840190600101612e0e565b50919695505050505050565b600060208284031215612e5b57600080fd5b8135612e66816127d5565b9392505050565b602081526000612e666020830184612cea565b6000610300808352612e948184018c612bf0565b915050612ea4602083018a612c4b565b8760408301528660608301528560808301528460a083015260018060a01b03841660c0830152612ed760e0830184612cbf565b9998505050505050505050565b60008060408385031215612ef757600080fd5b612f008361296f565b946020939093013593505050565b600060208284031215612f2057600080fd5b813567ffffffffffffffff811115612f3757600080fd5b612f43848285016128eb565b949350505050565b600181811c90821680612f5f57607f821691505b602082108103612f7f57634e487b7160e01b600052602260045260246000fd5b50919050565b60208082526024908201527f54686973206164647265737320616c726561647920686173206120636f6d6d756040820152636e69747960e01b606082015260800190565b634e487b7160e01b600052603260045260246000fd5b634e487b7160e01b600052601160045260246000fd5b8181038181111561300857613008612fdf565b92915050565b634e487b7160e01b600052603160045260246000fd5b60006001820161303657613036612fdf565b5060010190565b808202811582820484141761300857613008612fdf565b634e487b7160e01b600052601260045260246000fd5b60008261307957613079613054565b500490565b601f821115612ce557600081815260208120601f850160051c810160208610156130a55750805b601f850160051c820191505b818110156130c4578281556001016130b1565b505050505050565b815167ffffffffffffffff8111156130e6576130e6612833565b6130fa816130f48454612f4b565b8461307e565b602080601f83116001811461312f57600084156131175750858301515b600019600386901b1c1916600185901b1785556130c4565b600085815260208120601f198616915b8281101561315e5788860151825594840194600190910190840161313f565b508582101561317c5787850151600019600388901b60f8161c191681555b5050505050600190811b01905550565b8082018082111561300857613008612fdf565b60ff818116838216019081111561300857613008612fdf565b600060ff821660ff81036131ce576131ce612fdf565b60010192915050565b61ffff81811683821601908082111561169d5761169d612fdf565b61ffff81811683821602808216919082811461321057613210612fdf565b505092915050565b600061ffff8084168061322d5761322d613054565b92169190910492915050565b600060ff83168061324c5761324c613054565b8060ff84160491505092915050565b6101e081016130088284612c6d565b60ff828116828216039081111561300857613008612fdf565b600060ff82168061329657613296612fdf565b6000190192915050565b602081526000612e666020830184612bf056fea2646970667358221220eb0b7e3e59a1f6b63b6094065a1dbb0ba49793442746e634de690b7da0a1a73b64736f6c63430008120033",
  "immutableReferences": {},
  "source": "// SPDX-License-Identifier: MIT\npragma solidity >=0.4.22 <0.9.0;\n\n/**\n   * @title EcoCity\n   * @dev ContractDescription\n   */\ncontract EcoCity {\n\n    //indirizzo del wallet dell'organizzazione (8 su ganache)\n    address payable organization = payable(0x012b1ecAb40fcCF8a07e1Db99174b7D3bC89819B);\n\n\tenum CommunityType {\n    \tEcoFriendly, InTransition, Polluting, AtRisk\n\t}\n\n\tstruct Community{\n    \tbytes name;\n    \tCommunityType classification; //al momemnto della creazione la community  AtRisk\n    \tuint8[15] resources; \n        uint8[7] challenges;\n    \tuint256 lastInvestment;\n    \tuint256 score;\n    \tuint256 eco;\n        uint256 price;\n        address payable owner;\n        CasualEvent lastEvent;\n\t}\n\n    struct CasualEvent {\n        uint8 eventId;\n        uint8 severity;\n        uint8[15] damages;\n\n    }\n\n\tevent CommunityCreated(address indexed communityOwner, bytes name);\n    event ResourcesInvested(address indexed communityOwner, uint8[15] investments);\n    event CommunityOnSale(address indexed seller, uint256 price);\n    event CommunityBought(address indexed oldOwner, address indexed newowner, uint256 price);\n\n    \n\tmapping(address => Community) public communities; //each wallet can only own one community\n    address[] public addressArray; //array dinamico degli indirizzi delle comunit\n\n    mapping (uint8 => uint8[]) public eventDiscounts; //ad ogni eventID associo un array di id di risorse che lo attutiscono\n    mapping (uint8 => uint8[]) public eventDamages;  //ad ogni eventID associo un array di id di risorse vengono danneggiate\n\n\n\tfunction createCommunity(bytes memory _name) public { \n    \trequire(communities[msg.sender].name.length == 0, \"This address already has a community\"); \n    \trequire(_name.length > 0, \"Provide a name for the community\");\n\n    \tcommunities[msg.sender] = Community({\n        \tname:_name,\n        \tclassification: CommunityType.AtRisk,\n        \tresources: [0,0,0,0,0,0,0,0,0,0,0,0,0,0,0],\n            challenges: [0,0,0,0,0,0,0],\n        \t//lastInvestment: block.timestamp - 1 days, //immediately give the opportunity to invest ECOs\n            lastInvestment: block.timestamp,\n        \teco: 10,\n        \tscore: 0,\n            price: 0,\n            owner: payable(msg.sender),\n            lastEvent:CasualEvent(0,0, [0,0,0,0,0,0,0,0,0,0,0,0,0,0,0])\n    \t});\n\n        addressArray.push(msg.sender);\n\n\t\temit CommunityCreated(msg.sender, _name);\n\t}\n\n\tfunction getCommunityByOwner(address _owner) public view returns (Community memory community) {\n        require(communities[_owner].name.length > 0, \"This address doesn't have a community\");\n\n        return communities[_owner]; //BASTA METTERE MSG.SENDER INVECE DI METTERE IN INPUT L'OWNER\n    }\n\n\n\tmodifier onlyOncePerDay() {\n  \t    require(communities[msg.sender].lastInvestment + 1 days <= block.timestamp,\"Investment is allowed once per day\");\n        _;\n\t}  \n\n\tfunction investResources(uint8[15] memory _investments, uint8 randomNumber, uint8 eventNumber, uint8 eventSeverity) public { \n\t\tCommunity storage community = communities[msg.sender];\n        \n        \n        //cannot invest more ECOs than you have available\n        uint256 sum = 0;\n        for(uint256 i = 0; i < _investments.length; i++)\n            sum = sum + _investments[i];\n        require(sum <= community.eco, \"Cannot invest more than what you have\");\n         \n        \n        //update the resourses of the community\n        for(uint8 i = 0; i < _investments.length; i++) {\n            if (community.resources[i] + _investments[i] > 100) {\n                community.resources[i] = 100;\n            } else {\n                community.resources[i] += _investments[i];\n            }\n        }   \n    \n        //update of the timestamp of the last investment\n        community.lastInvestment = block.timestamp;\n\n\n        //uint8 randomNumber = uint8(uint256(keccak256(abi.encodePacked(block.timestamp, blockhash(block.number-1))))) % 100 + 1; //[1,100]\n        if (randomNumber <= 30 ) { \n            //uint8 eventNumber = uint8(uint256(keccak256(abi.encodePacked(block.timestamp, blockhash(block.number-1), randomNumber)))) % 6 + 1; //[1,6]\n            //uint8 eventSeverity = uint8(uint256(keccak256(abi.encodePacked(block.timestamp, blockhash(block.number-1), randomNumber, eventNumber)))) % 3 + 1; //[1,3]\n            \n            uint8[15] memory array = handleEvent(community, eventNumber, eventSeverity);\n\n            community.lastEvent = CasualEvent(eventNumber, eventSeverity, array);\n        } else{\n            community.lastEvent = CasualEvent(0, 0, [0,0,0,0,0,0,0,0,0,0,0,0,0,0,0]);\n        }\n\n        //computing the new score \n        uint16 totalScore = 0; //uint16 --> [0 e 65535]. max=1500\n        for(uint8 i = 0; i < _investments.length; i++) {\n            totalScore += community.resources[i];\n        }\n        community.score = (totalScore * 100) / 1500; //calcolo della percentuale media delle risorse\n\n        //computing the new classification\n        if (community.score >= 90) community.classification = CommunityType.EcoFriendly;\n        else if (community.score >= 60) community.classification = CommunityType.InTransition;\n        else if (community.score >= 30) community.classification = CommunityType.Polluting;\n        else community.classification = CommunityType.AtRisk;\n        \n        //updating eco variable\n        //community.eco = 10 + community.score; //DA VERIFICARE SE E' TROPPO POCO\n        community.eco = 1000 + community.score;\n\n\n\t\t//updating challanges values\n        community.challenges[0] = (community.resources[0] + community.resources[2] + community.resources[10] + community.resources[11]) / 4 ; //deforestation\n        community.challenges[1] = (community.resources[0] + community.resources[3] + community.resources[11] + community.resources[14]) / 4;   //loss of biodiversity\n        community.challenges[2] = (community.resources[1] + community.resources[4] + community.resources[6] + community.resources[10]) / 4;    //scarcity of natural resourses\n        community.challenges[3] = (community.resources[7] + community.resources[8] + community.resources[9] + community.resources[14]) / 4;    //waste disposal\n        community.challenges[4] = (community.resources[1] + community.resources[10] + community.resources[6] + community.resources[11]) / 4;   //climate change\n        community.challenges[5] = (community.resources[13] + community.resources[12] + community.resources[6] +community.resources[10]) / 4;   //air pollution \n        community.challenges[6] = (community.resources[5] +  community.resources[4] + community.resources[2] + community.resources[11]) / 4;  //water pollution \n\n        emit ResourcesInvested(msg.sender, _investments);\n\t}\n\n\n\n  function handleEvent(Community storage community, uint8 eventNumber, uint8 eventSeverity) internal returns (uint8[15] memory) {\n    uint8[] memory arrayDiscounts = eventDiscounts[eventNumber];\n    uint8[] memory arrayDamages = eventDamages[eventNumber];\n    uint8[15] memory damageArray;\n\n    uint256 discount = 0;\n    for(uint8 i = 0; i < arrayDiscounts.length; i++) {\n        uint8 resourceId = arrayDiscounts[i];\n        discount += uint256(community.resources[resourceId]) * uint256(10) / uint256(100);\n    }\n     \n\n    for(uint8 i = 0; i < arrayDamages.length; i++) {\n        uint8 resourceId = arrayDamages[i];\n        uint256 percent = uint256(25)*uint256(eventSeverity); //25 o 50 o 75\n        uint256 numerator = percent * uint256(community.resources[resourceId]); \n        uint256 damage = numerator / uint256(100);\n        uint256 damageDiscounted = damage + ( (damage * discount) / uint256(100) ); //applico lo sconto ai danni\n        community.resources[resourceId] -= uint8(damageDiscounted);\n        damageArray[resourceId] = uint8(damageDiscounted);\n    }\n    \n    return damageArray;\n    }\n\n\n  function removeFromShop() public {\n    Community storage community = communities[msg.sender];\n    require(community.price > 0, \"Community is not on sale\");\n    community.price = 0;\n  }\n\n\n  function buyCommunity(Community memory _community) payable public {\n      require(msg.sender != _community.owner,\"cannot buy your own community\" );\n      require(_community.price > 0, \"community not on sale\");\n      require(communities[msg.sender].name.length == 0, \"This address already has a community\"); \n      //require(msg.value >= _community.price, \"you do not have enough money\"); RIDONDANTE: lo fa metamask\n      \n      address payable oldOwner = _community.owner;\n\n      // remove old owner from addressArray\n      for (uint i = 0; i < addressArray.length; i++) {\n          if (addressArray[i] == address(_community.owner)) {\n              if (i != addressArray.length - 1) {\n                  addressArray[i] = addressArray[addressArray.length - 1];\n              }\n              addressArray.pop();\n              break;\n          }\n      }\n\n      // add new owner to addressArray\n      addressArray.push(payable(msg.sender));\n\n      //transfer money 90%\n      oldOwner.transfer(msg.value * 9 / 10); \n\n      //organization earns 10%\n      organization.transfer(msg.value / 10);\n\n      //update owner and put not on sale anymore\n      _community.owner = payable(msg.sender);\n      _community.price = 0;\n\n      // update communities mapping\n      delete communities[oldOwner];\n      communities[msg.sender] = _community;\n      \n      // emit event\n      emit CommunityBought(oldOwner, msg.sender, msg.value);\n  }\n\n\n  function sellCommunity(uint256 price, address addressOwner) public {\n      Community storage community = communities[addressOwner];\n      require(community.price == 0,\"community is already on sale\");\n      require(price > 0,\"price must be greater than 0\");\n      require(msg.sender == community.owner,\"you must be the owner of the community\");\n      community.price = price;\n      emit CommunityOnSale(msg.sender, price);\n  }\n\n  \n  function getCommunitiesForSale() public view returns (Community[] memory) {\n        uint256 count = 0;\n        // scorriamo tutte le comunit per contare quelle in vendita\n        for (uint256 i = 0; i < addressArray.length; i++) {\n            Community memory community = communities[addressArray[i]];\n            if (community.price > 0) {\n                count++;\n            }\n        }\n\n        // creiamo un array di dimensione count\n        Community[] memory communitiesOnSale = new Community[](count);\n        count = 0;\n\n        // riempiamo l'array con le comunit in vendita\n        for (uint256 i = 0; i < addressArray.length; i++){\n            Community memory community = communities[addressArray[i]];\n            if (community.price > 0){\n                communitiesOnSale[count] = community;\n                count++;\n            }\n        }\n        return communitiesOnSale;\n    }\n\n\n    \n    function getTop5Communities() public view returns (Community[5] memory) {\n        Community[5] memory topCommunities;\n        uint8 i = 0; // contatore per scorrere l'array topCommunities\n        uint256 j = 0; // contatore per l'array addressArray\n        while (i < 5 && j < addressArray.length) { //ciclo fino a quando trovo 5 comunit con punteggio > 0 o quando esaurisco gli indirizzi\n            address communityAddress = addressArray[j]; //estraggo l'indirizzo corrente\n            Community memory community = communities[communityAddress]; //leggo la relativa communit\n            if (community.score > 0) { //se la comunit corrente ha uno score\n                uint8 k = i; //usato come contatore per scorrere l'array topCommunities e trovare la posizione corretta in cui inserire la comununit corrente\n                while (k > 0 && community.score > topCommunities[k - 1].score) { //ciclo finche k>0 e il punteggio della comunit corrente  > di quella nella posizione precedente in array topCommunities\n                    //while annidato costoso ma  eseguito solo quando la communit corrente ha lo score> di una delle comunit in topCommunities\n                    topCommunities[k] = topCommunities[k - 1]; //sposto la comunit nella posizione k-1 nell'array in posizione k\n                    k--;\n                }\n                topCommunities[k] = community;\n                i++;\n            }\n            j++;\n        }\n        return topCommunities;\n    }\n    \n\n\n\n\n  constructor(){\n    // populate the mappings for event 1 (storm)\n    eventDiscounts[1] = [0, 4, 10];\n    eventDamages[1] = [2, 3, 4];\n    // populate the mappings for event 2 (drought)\n    eventDiscounts[2] = [4, 5, 9, 14];\n    eventDamages[2] = [0, 2, 11];\n    // populate the mappings for event 3 (flood)\n    eventDiscounts[3] = [4, 5, 11];\n    eventDamages[3] = [0, 1, 2, 14];\n    // populate the mappings for event 4 (epidemic)\n    eventDiscounts[4] = [6, 12, 13];\n    eventDamages[4] = [6, 9, 11];\n    // populate the mappings for event 5 (tornado)\n    eventDiscounts[5] = [4, 5, 10];\n    eventDamages[5] = [0, 6, 10, 11, 14];\n    // populate the mappings for event 6 (fire)\n    eventDiscounts[6] = [1, 4, 10, 12];\n    eventDamages[6] = [0, 1, 2, 14];\n}\n\n\n}\n",
  "sourcePath": "C:\\Users\\Alberto Cotumaccio\\OneDrive\\Desktop\\eco-city\\contracts\\EcoCity.sol",
  "compiler": {
    "name": "solc",
    "version": "0.8.18+commit.87f61d96.Emscripten.clang"
  },
  "schemaVersion": "3.4.12",
  "updatedAt": "2023-06-06T21:08:26.735Z",
  "networkType": "ethereum",
  "devdoc": {
    "details": "ContractDescription",
    "kind": "dev",
    "methods": {},
    "title": "EcoCity",
    "version": 1
  },
  "userdoc": {
    "kind": "user",
    "methods": {},
    "version": 1
  }
}